{
  "_format": "hh-sol-artifact-1",
  "contractName": "Vesting",
  "sourceName": "contracts/Vesting.sol",
  "abi": [
    {
      "inputs": [
        {
          "internalType": "address",
          "name": "token_",
          "type": "address"
        }
      ],
      "stateMutability": "nonpayable",
      "type": "constructor"
    },
    {
      "anonymous": false,
      "inputs": [
        {
          "indexed": true,
          "internalType": "address",
          "name": "previousOwner",
          "type": "address"
        },
        {
          "indexed": true,
          "internalType": "address",
          "name": "newOwner",
          "type": "address"
        }
      ],
      "name": "OwnershipTransferred",
      "type": "event"
    },
    {
      "anonymous": false,
      "inputs": [
        {
          "indexed": true,
          "internalType": "address",
          "name": "beneficiary",
          "type": "address"
        },
        {
          "indexed": false,
          "internalType": "uint256",
          "name": "amount",
          "type": "uint256"
        }
      ],
      "name": "TokensReleased",
      "type": "event"
    },
    {
      "anonymous": false,
      "inputs": [
        {
          "indexed": true,
          "internalType": "bytes32",
          "name": "vestingScheduleId",
          "type": "bytes32"
        }
      ],
      "name": "VestingRevoked",
      "type": "event"
    },
    {
      "anonymous": false,
      "inputs": [
        {
          "indexed": true,
          "internalType": "bytes32",
          "name": "vestingScheduleId",
          "type": "bytes32"
        },
        {
          "indexed": true,
          "internalType": "address",
          "name": "beneficiary",
          "type": "address"
        },
        {
          "indexed": false,
          "internalType": "uint256",
          "name": "amountTotal",
          "type": "uint256"
        },
        {
          "indexed": false,
          "internalType": "uint256",
          "name": "start",
          "type": "uint256"
        },
        {
          "indexed": false,
          "internalType": "uint256",
          "name": "cliff",
          "type": "uint256"
        },
        {
          "indexed": false,
          "internalType": "uint256",
          "name": "duration",
          "type": "uint256"
        },
        {
          "indexed": false,
          "internalType": "uint256",
          "name": "slicePeriodSeconds",
          "type": "uint256"
        },
        {
          "indexed": false,
          "internalType": "uint256",
          "name": "launchPercent",
          "type": "uint256"
        }
      ],
      "name": "VestingScheduleCreated",
      "type": "event"
    },
    {
      "stateMutability": "payable",
      "type": "fallback"
    },
    {
      "inputs": [
        {
          "components": [
            {
              "internalType": "address",
              "name": "beneficiary",
              "type": "address"
            },
            {
              "internalType": "uint256",
              "name": "cliff",
              "type": "uint256"
            },
            {
              "internalType": "uint256",
              "name": "start",
              "type": "uint256"
            },
            {
              "internalType": "uint256",
              "name": "launch",
              "type": "uint256"
            },
            {
              "internalType": "uint256",
              "name": "duration",
              "type": "uint256"
            },
            {
              "internalType": "uint256",
              "name": "slicePeriodSeconds",
              "type": "uint256"
            },
            {
              "internalType": "bool",
              "name": "revocable",
              "type": "bool"
            },
            {
              "internalType": "uint256",
              "name": "amountTotal",
              "type": "uint256"
            },
            {
              "internalType": "uint256",
              "name": "launchPercent",
              "type": "uint256"
            },
            {
              "internalType": "uint256",
              "name": "released",
              "type": "uint256"
            },
            {
              "internalType": "bool",
              "name": "revoked",
              "type": "bool"
            }
          ],
          "internalType": "struct Vesting.VestingSchedule",
          "name": "schedule",
          "type": "tuple"
        }
      ],
      "name": "calculateReleasable",
      "outputs": [
        {
          "internalType": "uint256",
          "name": "",
          "type": "uint256"
        }
      ],
      "stateMutability": "view",
      "type": "function"
    },
    {
      "inputs": [
        {
          "internalType": "address",
          "name": "_beneficiary",
          "type": "address"
        },
        {
          "internalType": "uint256",
          "name": "_start",
          "type": "uint256"
        },
        {
          "internalType": "uint256",
          "name": "_cliff",
          "type": "uint256"
        },
        {
          "internalType": "uint256",
          "name": "_launch",
          "type": "uint256"
        },
        {
          "internalType": "uint256",
          "name": "_duration",
          "type": "uint256"
        },
        {
          "internalType": "uint256",
          "name": "_slicePeriodSeconds",
          "type": "uint256"
        },
        {
          "internalType": "uint256",
          "name": "_launchPercent",
          "type": "uint256"
        },
        {
          "internalType": "bool",
          "name": "_revocable",
          "type": "bool"
        },
        {
          "internalType": "uint256",
          "name": "_amount",
          "type": "uint256"
        }
      ],
      "name": "createVestingSchedule",
      "outputs": [],
      "stateMutability": "nonpayable",
      "type": "function"
    },
    {
      "inputs": [],
      "name": "getWithdrawableAmount",
      "outputs": [
        {
          "internalType": "uint256",
          "name": "",
          "type": "uint256"
        }
      ],
      "stateMutability": "view",
      "type": "function"
    },
    {
      "inputs": [],
      "name": "owner",
      "outputs": [
        {
          "internalType": "address",
          "name": "",
          "type": "address"
        }
      ],
      "stateMutability": "view",
      "type": "function"
    },
    {
      "inputs": [
        {
          "internalType": "bytes32",
          "name": "vestingScheduleId",
          "type": "bytes32"
        }
      ],
      "name": "release",
      "outputs": [],
      "stateMutability": "nonpayable",
      "type": "function"
    },
    {
      "inputs": [],
      "name": "renounceOwnership",
      "outputs": [],
      "stateMutability": "nonpayable",
      "type": "function"
    },
    {
      "inputs": [
        {
          "internalType": "bytes32",
          "name": "vestingScheduleId",
          "type": "bytes32"
        }
      ],
      "name": "revokeVestingSchedule",
      "outputs": [],
      "stateMutability": "nonpayable",
      "type": "function"
    },
    {
      "inputs": [],
      "name": "token",
      "outputs": [
        {
          "internalType": "contract IERC20",
          "name": "",
          "type": "address"
        }
      ],
      "stateMutability": "view",
      "type": "function"
    },
    {
      "inputs": [
        {
          "internalType": "address",
          "name": "newOwner",
          "type": "address"
        }
      ],
      "name": "transferOwnership",
      "outputs": [],
      "stateMutability": "nonpayable",
      "type": "function"
    },
    {
      "stateMutability": "payable",
      "type": "receive"
    }
  ],
  "bytecode": "0x60a06040523480156200001157600080fd5b50604051620022bb380380620022bb833981810160405281019062000037919062000241565b620000576200004b6200010b60201b60201c565b6200011360201b60201c565b60018081905550600073ffffffffffffffffffffffffffffffffffffffff168173ffffffffffffffffffffffffffffffffffffffff1603620000d0576040517f08c379a0000000000000000000000000000000000000000000000000000000008152600401620000c790620002d4565b60405180910390fd5b8073ffffffffffffffffffffffffffffffffffffffff1660808173ffffffffffffffffffffffffffffffffffffffff168152505050620002f6565b600033905090565b60008060009054906101000a900473ffffffffffffffffffffffffffffffffffffffff169050816000806101000a81548173ffffffffffffffffffffffffffffffffffffffff021916908373ffffffffffffffffffffffffffffffffffffffff1602179055508173ffffffffffffffffffffffffffffffffffffffff168173ffffffffffffffffffffffffffffffffffffffff167f8be0079c531659141344cd1fd0a4f28419497f9722a3daafe3b4186f6b6457e060405160405180910390a35050565b600080fd5b600073ffffffffffffffffffffffffffffffffffffffff82169050919050565b60006200020982620001dc565b9050919050565b6200021b81620001fc565b81146200022757600080fd5b50565b6000815190506200023b8162000210565b92915050565b6000602082840312156200025a5762000259620001d7565b5b60006200026a848285016200022a565b91505092915050565b600082825260208201905092915050565b7f56657374696e673a20696e76616c696420746f6b656e20616464726573730000600082015250565b6000620002bc601e8362000273565b9150620002c98262000284565b602082019050919050565b60006020820190508181036000830152620002ef81620002ad565b9050919050565b608051611f9b620003206000396000818161099e01528181610b610152610d9b0152611f9b6000f3fe60806040526004361061008a5760003560e01c80638da5cb5b116100595780638da5cb5b1461012557806390be10cc14610150578063962d31f41461017b578063f2fde38b146101b8578063fc0c546a146101e157610091565b806332dc684314610093578063511da470146100bc57806367d42a8b146100e5578063715018a61461010e57610091565b3661009157005b005b34801561009f57600080fd5b506100ba60048036038101906100b59190610fa4565b61020c565b005b3480156100c857600080fd5b506100e360048036038101906100de919061109d565b61031c565b005b3480156100f157600080fd5b5061010c60048036038101906101079190610fa4565b610733565b005b34801561011a57600080fd5b50610123610b1d565b005b34801561013157600080fd5b5061013a610b31565b6040516101479190611176565b60405180910390f35b34801561015c57600080fd5b50610165610b5a565b60405161017291906111a0565b60405180910390f35b34801561018757600080fd5b506101a2600480360381019061019d9190611358565b610c08565b6040516101af91906111a0565b60405180910390f35b3480156101c457600080fd5b506101df60048036038101906101da9190611386565b610d16565b005b3480156101ed57600080fd5b506101f6610d99565b6040516102039190611412565b60405180910390f35b610214610dbd565b60006003600083815260200190815260200160002090508060060160009054906101000a900460ff1661027c576040517f08c379a0000000000000000000000000000000000000000000000000000000008152600401610273906114b0565b60405180910390fd5b80600a0160009054906101000a900460ff16156102ce576040517f08c379a00000000000000000000000000000000000000000000000000000000081526004016102c590611542565b60405180910390fd5b600181600a0160006101000a81548160ff021916908315150217905550817f8813e00e6b3387d6d203de4d34d29edffcbd1905c4338ca2faf29a673f9769f660405160405180910390a25050565b610324610dbd565b8061032d610b5a565b101561036e576040517f08c379a0000000000000000000000000000000000000000000000000000000008152600401610365906115ae565b60405180910390fd5b600085116103b1576040517f08c379a00000000000000000000000000000000000000000000000000000000081526004016103a890611640565b60405180910390fd5b600086116103f4576040517f08c379a00000000000000000000000000000000000000000000000000000000081526004016103eb906116d2565b60405180910390fd5b60008111610437576040517f08c379a000000000000000000000000000000000000000000000000000000000815260040161042e90611764565b60405180910390fd5b600184101561047b576040517f08c379a0000000000000000000000000000000000000000000000000000000008152600401610472906117f6565b60405180910390fd5b60648311156104bf576040517f08c379a00000000000000000000000000000000000000000000000000000000081526004016104b690611888565b60405180910390fd5b600089898988426040516020016104da959493929190611911565b60405160208183030381529060405280519060200120905060006040518061016001604052808c73ffffffffffffffffffffffffffffffffffffffff1681526020018a81526020018b8152602001898152602001888152602001878152602001851515815260200184815260200186815260200160008152602001600015158152509050806003600084815260200190815260200160002060008201518160000160006101000a81548173ffffffffffffffffffffffffffffffffffffffff021916908373ffffffffffffffffffffffffffffffffffffffff1602179055506020820151816001015560408201518160020155606082015181600301556080820151816004015560a0820151816005015560c08201518160060160006101000a81548160ff02191690831515021790555060e082015181600701556101008201518160080155610120820151816009015561014082015181600a0160006101000a81548160ff0219169083151502179055509050506002829080600181540180825580915050600190039060005260206000200160009091909190915055600560008c73ffffffffffffffffffffffffffffffffffffffff1673ffffffffffffffffffffffffffffffffffffffff16815260200190815260200160002060008154809291906106c89061199f565b91905055508a73ffffffffffffffffffffffffffffffffffffffff16827fd8f0ff469fb78aae380797050ad5fee6bc8ec3f47158ccd280053ed822f63701858d8d8c8c8c60405161071e969594939291906119e7565b60405180910390a35050505050505050505050565b61073b610e3b565b8060036000828152602001908152602001600020600a0160009054906101000a900460ff16156107a0576040517f08c379a000000000000000000000000000000000000000000000000000000000815260040161079790611aba565b60405180910390fd5b60006003600084815260200190815260200160002090503373ffffffffffffffffffffffffffffffffffffffff168160000160009054906101000a900473ffffffffffffffffffffffffffffffffffffffff1673ffffffffffffffffffffffffffffffffffffffff1614610849576040517f08c379a000000000000000000000000000000000000000000000000000000000815260040161084090611b4c565b60405180910390fd5b600061093c82604051806101600160405290816000820160009054906101000a900473ffffffffffffffffffffffffffffffffffffffff1673ffffffffffffffffffffffffffffffffffffffff1673ffffffffffffffffffffffffffffffffffffffff16815260200160018201548152602001600282015481526020016003820154815260200160048201548152602001600582015481526020016006820160009054906101000a900460ff16151515158152602001600782015481526020016008820154815260200160098201548152602001600a820160009054906101000a900460ff161515151581525050610c08565b905060008111610981576040517f08c379a000000000000000000000000000000000000000000000000000000000815260040161097890611bb8565b60405180910390fd5b808260090160008282546109959190611bd8565b925050819055507f000000000000000000000000000000000000000000000000000000000000000073ffffffffffffffffffffffffffffffffffffffff1663a9059cbb8360000160009054906101000a900473ffffffffffffffffffffffffffffffffffffffff16836040518363ffffffff1660e01b8152600401610a1b929190611c0c565b6020604051808303816000875af1158015610a3a573d6000803e3d6000fd5b505050506040513d601f19601f82011682018060405250810190610a5e9190611c4a565b610a9d576040517f08c379a0000000000000000000000000000000000000000000000000000000008152600401610a9490611cc3565b60405180910390fd5b8160000160009054906101000a900473ffffffffffffffffffffffffffffffffffffffff1673ffffffffffffffffffffffffffffffffffffffff167fc7798891864187665ac6dd119286e44ec13f014527aeeb2b8eb3fd413df9317982604051610b0791906111a0565b60405180910390a2505050610b1a610e8a565b50565b610b25610dbd565b610b2f6000610e93565b565b60008060009054906101000a900473ffffffffffffffffffffffffffffffffffffffff16905090565b60006004547f000000000000000000000000000000000000000000000000000000000000000073ffffffffffffffffffffffffffffffffffffffff166370a08231306040518263ffffffff1660e01b8152600401610bb89190611176565b602060405180830381865afa158015610bd5573d6000803e3d6000fd5b505050506040513d601f19601f82011682018060405250810190610bf99190611cf8565b610c039190611d25565b905090565b600081602001518260400151610c1e9190611bd8565b421015610c2e5760009050610d11565b6000826040015142610c409190611d25565b905060008360a0015182610c549190611d88565b905083608001518460a0015182610c6b9190611db9565b1115610c88578360a001518460800151610c859190611d88565b90505b60008460a001518560800151610c9e9190611d88565b828660e00151610cae9190611db9565b610cb89190611d88565b9050600060648661010001518760e00151610cd39190611db9565b610cdd9190611d88565b905085606001514210610cf9578082610cf69190611bd8565b91505b85610120015182610d0a9190611d25565b9450505050505b919050565b610d1e610dbd565b600073ffffffffffffffffffffffffffffffffffffffff168173ffffffffffffffffffffffffffffffffffffffff1603610d8d576040517f08c379a0000000000000000000000000000000000000000000000000000000008152600401610d8490611e6d565b60405180910390fd5b610d9681610e93565b50565b7f000000000000000000000000000000000000000000000000000000000000000081565b610dc5610f57565b73ffffffffffffffffffffffffffffffffffffffff16610de3610b31565b73ffffffffffffffffffffffffffffffffffffffff1614610e39576040517f08c379a0000000000000000000000000000000000000000000000000000000008152600401610e3090611ed9565b60405180910390fd5b565b600260015403610e80576040517f08c379a0000000000000000000000000000000000000000000000000000000008152600401610e7790611f45565b60405180910390fd5b6002600181905550565b60018081905550565b60008060009054906101000a900473ffffffffffffffffffffffffffffffffffffffff169050816000806101000a81548173ffffffffffffffffffffffffffffffffffffffff021916908373ffffffffffffffffffffffffffffffffffffffff1602179055508173ffffffffffffffffffffffffffffffffffffffff168173ffffffffffffffffffffffffffffffffffffffff167f8be0079c531659141344cd1fd0a4f28419497f9722a3daafe3b4186f6b6457e060405160405180910390a35050565b600033905090565b6000604051905090565b600080fd5b6000819050919050565b610f8181610f6e565b8114610f8c57600080fd5b50565b600081359050610f9e81610f78565b92915050565b600060208284031215610fba57610fb9610f69565b5b6000610fc884828501610f8f565b91505092915050565b600073ffffffffffffffffffffffffffffffffffffffff82169050919050565b6000610ffc82610fd1565b9050919050565b61100c81610ff1565b811461101757600080fd5b50565b60008135905061102981611003565b92915050565b6000819050919050565b6110428161102f565b811461104d57600080fd5b50565b60008135905061105f81611039565b92915050565b60008115159050919050565b61107a81611065565b811461108557600080fd5b50565b60008135905061109781611071565b92915050565b60008060008060008060008060006101208a8c0312156110c0576110bf610f69565b5b60006110ce8c828d0161101a565b99505060206110df8c828d01611050565b98505060406110f08c828d01611050565b97505060606111018c828d01611050565b96505060806111128c828d01611050565b95505060a06111238c828d01611050565b94505060c06111348c828d01611050565b93505060e06111458c828d01611088565b9250506101006111578c828d01611050565b9150509295985092959850929598565b61117081610ff1565b82525050565b600060208201905061118b6000830184611167565b92915050565b61119a8161102f565b82525050565b60006020820190506111b56000830184611191565b92915050565b600080fd5b6000601f19601f8301169050919050565b7f4e487b7100000000000000000000000000000000000000000000000000000000600052604160045260246000fd5b611209826111c0565b810181811067ffffffffffffffff82111715611228576112276111d1565b5b80604052505050565b600061123b610f5f565b90506112478282611200565b919050565b60006101608284031215611263576112626111bb565b5b61126e610160611231565b9050600061127e8482850161101a565b600083015250602061129284828501611050565b60208301525060406112a684828501611050565b60408301525060606112ba84828501611050565b60608301525060806112ce84828501611050565b60808301525060a06112e284828501611050565b60a08301525060c06112f684828501611088565b60c08301525060e061130a84828501611050565b60e08301525061010061131f84828501611050565b6101008301525061012061133584828501611050565b6101208301525061014061134b84828501611088565b6101408301525092915050565b6000610160828403121561136f5761136e610f69565b5b600061137d8482850161124c565b91505092915050565b60006020828403121561139c5761139b610f69565b5b60006113aa8482850161101a565b91505092915050565b6000819050919050565b60006113d86113d36113ce84610fd1565b6113b3565b610fd1565b9050919050565b60006113ea826113bd565b9050919050565b60006113fc826113df565b9050919050565b61140c816113f1565b82525050565b60006020820190506114276000830184611403565b92915050565b600082825260208201905092915050565b7f56657374696e673a207363686564756c65206973206e6f74207265766f63616260008201527f6c65000000000000000000000000000000000000000000000000000000000000602082015250565b600061149a60228361142d565b91506114a58261143e565b604082019050919050565b600060208201905081810360008301526114c98161148d565b9050919050565b7f56657374696e673a207363686564756c6520616c7265616479207265766f6b6560008201527f6400000000000000000000000000000000000000000000000000000000000000602082015250565b600061152c60218361142d565b9150611537826114d0565b604082019050919050565b6000602082019050818103600083015261155b8161151f565b9050919050565b7f56657374696e673a20696e73756666696369656e7420746f6b656e7300000000600082015250565b6000611598601c8361142d565b91506115a382611562565b602082019050919050565b600060208201905081810360008301526115c78161158b565b9050919050565b7f56657374696e673a206475726174696f6e206d7573742062652067726561746560008201527f72207468616e2030000000000000000000000000000000000000000000000000602082015250565b600061162a60288361142d565b9150611635826115ce565b604082019050919050565b600060208201905081810360008301526116598161161d565b9050919050565b7f56657374696e673a206c61756e6368206d75737420626520677265617465722060008201527f7468616e20300000000000000000000000000000000000000000000000000000602082015250565b60006116bc60268361142d565b91506116c782611660565b604082019050919050565b600060208201905081810360008301526116eb816116af565b9050919050565b7f56657374696e673a20616d6f756e74206d75737420626520677265617465722060008201527f7468616e20300000000000000000000000000000000000000000000000000000602082015250565b600061174e60268361142d565b9150611759826116f2565b604082019050919050565b6000602082019050818103600083015261177d81611741565b9050919050565b7f56657374696e673a20736c696365506572696f645365636f6e6473206d75737460008201527f206265203e3d2031000000000000000000000000000000000000000000000000602082015250565b60006117e060288361142d565b91506117eb82611784565b604082019050919050565b6000602082019050818103600083015261180f816117d3565b9050919050565b7f56657374696e673a206c61756e636850657263656e74206d757374206265206260008201527f65747765656e203020616e642031303000000000000000000000000000000000602082015250565b600061187260308361142d565b915061187d82611816565b604082019050919050565b600060208201905081810360008301526118a181611865565b9050919050565b60008160601b9050919050565b60006118c0826118a8565b9050919050565b60006118d2826118b5565b9050919050565b6118ea6118e582610ff1565b6118c7565b82525050565b6000819050919050565b61190b6119068261102f565b6118f0565b82525050565b600061191d82886118d9565b60148201915061192d82876118fa565b60208201915061193d82866118fa565b60208201915061194d82856118fa565b60208201915061195d82846118fa565b6020820191508190509695505050505050565b7f4e487b7100000000000000000000000000000000000000000000000000000000600052601160045260246000fd5b60006119aa8261102f565b91507fffffffffffffffffffffffffffffffffffffffffffffffffffffffffffffffff82036119dc576119db611970565b5b600182019050919050565b600060c0820190506119fc6000830189611191565b611a096020830188611191565b611a166040830187611191565b611a236060830186611191565b611a306080830185611191565b611a3d60a0830184611191565b979650505050505050565b7f56657374696e673a207363686564756c6520686173206265656e207265766f6b60008201527f6564000000000000000000000000000000000000000000000000000000000000602082015250565b6000611aa460228361142d565b9150611aaf82611a48565b604082019050919050565b60006020820190508181036000830152611ad381611a97565b9050919050565b7f56657374696e673a2063616c6c6572206973206e6f74207468652062656e656660008201527f6963696172790000000000000000000000000000000000000000000000000000602082015250565b6000611b3660268361142d565b9150611b4182611ada565b604082019050919050565b60006020820190508181036000830152611b6581611b29565b9050919050565b7f56657374696e673a206e6f20746f6b656e7320746f2072656c65617365000000600082015250565b6000611ba2601d8361142d565b9150611bad82611b6c565b602082019050919050565b60006020820190508181036000830152611bd181611b95565b9050919050565b6000611be38261102f565b9150611bee8361102f565b9250828201905080821115611c0657611c05611970565b5b92915050565b6000604082019050611c216000830185611167565b611c2e6020830184611191565b9392505050565b600081519050611c4481611071565b92915050565b600060208284031215611c6057611c5f610f69565b5b6000611c6e84828501611c35565b91505092915050565b7f56657374696e673a20746f6b656e207472616e73666572206661696c65640000600082015250565b6000611cad601e8361142d565b9150611cb882611c77565b602082019050919050565b60006020820190508181036000830152611cdc81611ca0565b9050919050565b600081519050611cf281611039565b92915050565b600060208284031215611d0e57611d0d610f69565b5b6000611d1c84828501611ce3565b91505092915050565b6000611d308261102f565b9150611d3b8361102f565b9250828203905081811115611d5357611d52611970565b5b92915050565b7f4e487b7100000000000000000000000000000000000000000000000000000000600052601260045260246000fd5b6000611d938261102f565b9150611d9e8361102f565b925082611dae57611dad611d59565b5b828204905092915050565b6000611dc48261102f565b9150611dcf8361102f565b9250828202611ddd8161102f565b91508282048414831517611df457611df3611970565b5b5092915050565b7f4f776e61626c653a206e6577206f776e657220697320746865207a65726f206160008201527f6464726573730000000000000000000000000000000000000000000000000000602082015250565b6000611e5760268361142d565b9150611e6282611dfb565b604082019050919050565b60006020820190508181036000830152611e8681611e4a565b9050919050565b7f4f776e61626c653a2063616c6c6572206973206e6f7420746865206f776e6572600082015250565b6000611ec360208361142d565b9150611ece82611e8d565b602082019050919050565b60006020820190508181036000830152611ef281611eb6565b9050919050565b7f5265656e7472616e637947756172643a207265656e7472616e742063616c6c00600082015250565b6000611f2f601f8361142d565b9150611f3a82611ef9565b602082019050919050565b60006020820190508181036000830152611f5e81611f22565b905091905056fea264697066735822122056fffb8c79cae9378c183c2fe24636a4127236e6b91d2adbfbbe3e12d8290de364736f6c63430008130033",
  "linkReferences": {},
  "deployedLinkReferences": {}
}